:020000040800F2
:10000000801B00203D2700088522000829270008C2
:1000100029270008292700082927000800000000D8
:100020000000000000000000000000003928000867
:100030002927000800000000052800080D430008DB
:10004000B1290008B1290008B1290008B129000828
:10005000B1290008B1290008B1290008B129000818
:10006000B1290008B1290008B1290008B129000808
:10007000B1290008B1290008B1290008B1290008F8
:10008000B1290008B1290008B1290008B1290008E8
:10009000B1290008B1290008B1290008B1290008D8
:1000A000B1290008B1290008B1290008B1290008C8
:1000B000B1290008B1290008B1290008B1290008B8
:1000C000B1290008B1290008B1290008B1290008A8
:1000D000B1290008B1290008B1290008B129000898
:1000E000B1290008B1290008B1290008B129000888
:1000F000B1290008B1290008B1290008B129000878
:10010000B1290008B1290008B1290008B129000867
:10011000B1290008B1290008B1290008B129000857
:10012000B1290008B1290008B1290008B129000847
:10013000B1290008B1290008B1290008B129000837
:10014000B1290008B1290008B1290008B129000827
:10015000B1290008B1290008B1290008B129000817
:10016000B1290008B1290008B1290008B129000807
:10017000B1290008B1290008B1290008B1290008F7
:10018000B1290008B1290008B1290008B1290008E7
:10019000B1290008B1290008B1290008B1290008D7
:1001A000B1290008B1290008B1290008B1290008C7
:1001B000B1290008B1290008B1290008B1290008B7
:0401C000B129000859
:1001C400FFFFFFFFFFFFFFFFFFFFFFFFFFFFFFFF3B
:1001D400FFFFFFFFFFFFFFFFFFFFFFFFFFFFFFFF2B
:1001E400FFFFFFFFFFFFFFFFFFFFFFFFFFFFFFFF1B
:0C01F400FFFFFFFFFFFFFFFFFFFFFFFF0B
:1002000090F800F06DE9024520F007016FF0000C56
:1002100010F0070491F820F040F049804FF00004FE
:100220006FF00700D1E9002391F840F000F10800D9
:1002300082FA4CF2A4FA8CF283FA4CF3A2FA8CF311
:100240004BBBD1E9022382FA4CF200F10800A4FA78
:100250008CF283FA4CF3A2FA8CF3E3B9D1E90423CC
:1002600082FA4CF200F10800A4FA8CF283FA4CF303
:10027000A2FA8CF37BB9D1E9062301F1200182FABD
:100280004CF200F10800A4FA8CF283FA4CF3A2FAC3
:100290008CF3002BC6D0002A04BF04301A4612BAD1
:1002A000B2FA82F2FDE8024500EBD2007047D1E9D4
:1002B000002304F00305C4F100004FEAC50514F063
:1002C000040F91F840F00CFA05F562EA05021CBF34
:1002D00063EA050362464FF00004A9E753B94AB93F
:1002E000002908BF00281CBF4FF0FF314FF0FF303E
:1002F00000F00CB8ADF1080C6DE904CE00F0B5F8D3
:10030000DDF804E0DDE9022304B07047704700BF68
:10031000844641EA000313F003036DD1403A41D310
:1003200051F8043B40F8043B51F8043B40F8043BCF
:1003300051F8043B40F8043B51F8043B40F8043BBF
:1003400051F8043B40F8043B51F8043B40F8043BAF
:1003500051F8043B40F8043B51F8043B40F8043B9F
:1003600051F8043B40F8043B51F8043B40F8043B8F
:1003700051F8043B40F8043B51F8043B40F8043B7F
:1003800051F8043B40F8043B51F8043B40F8043B6F
:1003900051F8043B40F8043B51F8043B40F8043B5F
:1003A000403ABDD2303211D351F8043B40F8043BFF
:1003B00051F8043B40F8043B51F8043B40F8043B3F
:1003C00051F8043B40F8043B103AEDD20C3205D30F
:1003D00051F8043B40F8043B043AF9D2043208D007
:1003E000D2071CBF11F8013B00F8013B01D30B8879
:1003F00003806046704700BF082A13D38B078DD057
:1004000010F003038AD0C3F10403D21ADB071CBF28
:1004100011F8013B00F8013B80D331F8023B20F892
:10042000023B7BE7043AD9D3013A11F8013B00F8CB
:10043000013BF9D20B7803704B7843708B78837053
:1004400060467047430803F05533C01A00F0333359
:10045000800800F03330184400EB10104FF00133E7
:1004600000F00F305843000E70472DE9F0478646E4
:100470008C460846089E154674461946002B40F0E7
:10048000C2808542B2FA82F245D94AB1C2F1200354
:1004900000FA02FC2EFA03F3954043EA0C0C944058
:1004A0004FEA154EA8B2BCFBFEF8230C0EFB18CC8D
:1004B00008FB00F943EA0C43994528D9EB1808F1E9
:1004C000FF3704D2994502D9A8F102072B44A3EBC8
:1004D0000903A4B2B3FBFEFC0EFB1C330CFB00F0C3
:1004E00044EA0344A04214D92C190CF1FF3304D27E
:1004F000A04202D9ACF102032C44241A43EA07407B
:100500001EB1D440002334607360BDE8F0874746D5
:10051000DDE76346F1E792BB431B01214FEA154E2D
:10052000AFB2B3FBFEFC200C0EFB1C330CFB07F838
:1005300040EA0343984562D9EB180CF1FF3004D22E
:10054000984502D9ACF102002B44A3EB0803A4B2F6
:10055000B3FBFEFC0EFB1C330CFB07F744EA034421
:10056000A7424ED92C190CF1FF3304D2A74202D96D
:10057000ACF102032C44E41B43EA0040C0E7C2F1A3
:10058000200320FA03F1954090402EFA03F3034331
:100590004FEA154EAFB2B1FBFEFC0EFB1C10190C5E
:1005A0000CFB07F841EA0041884504FA02F422D91D
:1005B00069180CF1FF3004D2884502D9ACF1020071
:1005C0002944A1EB08019BB2B1FBFEFC0EFB1C1100
:1005D0000CFB07F743EA01439F420ED9EB180CF1DD
:1005E000FF3104D29F4202D9ACF102012B44DB1B44
:1005F00041EA004192E76046E3E76146F7E760467B
:10060000A3E76346B7E7834206D916B90021084637
:100610007BE7C6E900E0F9E7B3FA83F78FB98342D5
:1006200001D3724508D8BEEB020460EB030301203E
:100630009C461EB9002168E73846FAE7C6E9004C37
:10064000F8E7C7F1200CBB4022FA0CF41C432EFA49
:100650000CF120FA0CF3B84001434FEA14490EFAAA
:1006600007F5B3FBF9F81FFA84FE09FB18300B0CF1
:1006700008FB0EFA43EA00439A4502FA07F240D912
:10068000E31808F1FF3004D29A4502D9A8F102001C
:100690002344A3EB0A0389B2B3FBF9F809FB18332F
:1006A00008FB0EFE41EA03418E452CD9611808F182
:1006B000FF3304D28E4502D9A8F10203214443EA54
:1006C0000040A0FB0298A1EB0E014145CE464346F7
:1006D00002D306D14D4504D2B9EB020E68EB0403F8
:1006E0000138002EA6D0B5EB0E0261EB030101FA32
:1006F0000CFC22FA07F34CEA0303F940C6E9003187
:1007000098E74046C5E74346D9E700002DE9F04F9A
:1007100091B08407009302F004030293C2F3C20372
:1007200003F10103DDF86890039205460E46059338
:1007300040F0BA81041D30B1072909D86FF01B00C1
:1007400011B0BDE8F08F01F00706341DC6F10806B0
:10075000009B4FF00008591E4FF0040A4FF0FF3382
:100760000193CDF810804746C34653460DB1009A19
:1007700022600598002800F3E8809848009A824299
:1007800003D397488242C0F0E080039AA4EB050EA1
:1007900092074FEA9E0000F103810F2F00F2B18013
:1007A000002D00F0058107F140020DEB020C019ACB
:1007B0000CF8200C0CF8102C049801300490E7E0A1
:1007C0007A285DD84B280ED8472859D829282DD803
:1007D000252852D054D820287AD02338D0F1000BC5
:1007E0004BEB000B74E04C382E2849D8DFE800F0C2
:1007F0007048484848484848484848484B4848484E
:10080000484848484859484B4B595959704B6D48CE
:100810007048184B184848827F4B48484B487F0027
:1008200000204FF0000B4FF0040A38E02A38C0B225
:10083000012202FA00F010EA0E0F49D110F0625CBA
:100840002FD110EA020B43D06046013C5444B4FB64
:10085000FAF40AFB04F4002D61D0A3EB050CA444C8
:10086000B4453FF66BAF002868D1042B47D159F847
:10087000043B2360043404232AE0019A013A0192E4
:100880004FF0000B24E011F8010C6C2834D111F862
:10089000023C00206C2B8346C5D14FF0080A53461A
:1008A000D3E709F1070929F007090734F9E802AB92
:1008B00024F0070435B106982044B0423FF63EAF1D
:1008C000C4E900AB08344FF0000B4FF0080A534660
:1008D00011F8010F002878D0BBF1000F7FF470AF42
:1008E0002528F5D1019B013301934FF0010B4FF007
:1008F000040AECE7584694E700208346A5E7082B56
:1009000002D06FF015001BE709F1070929F007096C
:10091000F9E80223C4E9002308340823D8E768B9BA
:10092000042B02D109F10409A4E7082BE9D109F14C
:10093000070929F0070909F10809EDE7059A013AC5
:10094000059259F8042B009210E7039A900720D5DE
:10095000A4EB050E4FEA9E004FF0010CBEF5007FA0
:10096000CFD20F2FCDD8F5B107F140020DEB020E1B
:10097000C0B2019A0EF8200C0EF8102CBCF1000F3A
:100980003FF41AAF60F07F000EF8200C08F1010868
:100990000137C5F10802043406924FF6DA7E97E774
:1009A0004FF0000CDAE7BCF1000F01D00136EFE7A1
:1009B000029802360028EBD10098CDE90631FFF706
:1009C0001FFCDDE906310644E2E7631BB3F5806FE7
:1009D00097D23DB9A6F10804E018B1E668720008A4
:1009E000288B0008029A28609B082B709DF8103015
:1009F000C2B1EB7085F80280B8F1000F05D008A8ED
:100A00000022C5F1010C97420ED1C5F101030DF191
:100A100020094FF0000A01930DF1300B574512D118
:100A2000601B8DE66B70E5E710F8013B190608D5F1
:100A300004EB0C0EB64503F07F033FF67FAE04F8DF
:100A4000013B0132DFE7B8F1000F03D099F9002034
:100A5000002A17DB029BD3B11AF80B2004F8012BF4
:100A60000022019B98182044B0423FF667AE99F8E7
:100A7000000004F8010B009903922046FFF748FCA0
:100A8000039A14440AF1010A09F10109C6E799F829
:100A9000002055F822300093029B45F82230009840
:100AA000FFF7AEFB421CDCE76FF00D0048E600BF2D
:100AB0002DE9F04F97B000AF90F802A0D7F880B0C2
:100AC0003B62CBF3C0030446FA62BB61894641B97D
:100AD000457800780AEB800020444D4517D8A0EBFC
:100AE0000409E378FB61BAF1000F02D01BF0010F9B
:100AF00016D1FB6953BBFB6A1BB13A6A49462046D3
:100B000098474D4628465C37BD46BDE8F08F461CE9
:100B10003046FFF775FB0130304409F10109DCE78D
:100B2000237862687A62FA6A9900796104EB83013A
:100B3000002A40F000814D460E4601EB0A094FF0B5
:100B400000084E454CD101EB0A0610E01BF0020FE5
:100B5000D1D023789A007A6162687A62FA6A04EBEB
:100B60008301002A77D14D4601EB0A0690461BF01F
:100B7000050F0CBF02230123FB62FB6906EB430A4E
:100B80000BF00203BB625645BCD016F8021B16F8E8
:100B9000013C54F82390AF4B994502D3AE4B994595
:100BA00036D3BB69002B40D0786A04F0A2FF00283E
:100BB0003BD0E9468AB06A46A84B53617B6AC2E9DA
:100BC00006314FF400731384A54B42F8103FA5483B
:100BD00000234FF4125101F031F8023DCD46D2E727
:100BE00016F8013BF96254F82300FFF709FBD7F828
:100BF0008430F96A01304BB1D7F8883098453EBF50
:100C0000D7F8843023F8180008F10108054498E764
:100C1000BB6923B1786A04F06CFF0028C9D11BF0CE
:100C2000010F05D1FB6AED1AADE7BB6A002BAAD014
:100C30004846FFF7E5FAD7F8843053B1D7F8883043
:100C400098453FBFD7F88420431C22F8183008F19C
:100C50000108054497E7BAF1000F72D01BF00406B3
:100C600072D0D046002607F1480052463B61B96277
:100C7000FFF74EFBB96A3B6901EB0A02BA62FA69F7
:100C8000F9695200FA60BA6A02EB41023A610BF06C
:100C90000202BA603A69B96A8A4257D162787A62C6
:100CA0001BF0020F32440CBF4FEA580100211BF029
:100CB000010FD2B240F09F801BF0040F14BF4046DA
:100CC0000020BB616270A070E1703A6A7969FB6ACA
:100CD00020469847051EFFF615AFBB6923707B6A57
:100CE0006370FB69E37041463A6AFB6A84F802A0CC
:100CF00007F148009847B0F10008C0F2B5807B6961
:100D00003A6AA9EB0A01C91AFB68C91AD7E90A03AA
:100D100098470028C0F2AA80A84408EB00054FF0CD
:100D2000000B07F1380AB34567D300213A6AFB6A22
:100D300008469847E6E656464FF0000807F13800A7
:100D400093E75646D04697E7B04695E7BA6A12F859
:100D5000021BBA6212F8015C3E4A54F82500904228
:100D600002D33D4A90421ED3BA6932B1786A7B60A1
:100D700004F0BFFE7B6800288CD1BA6802BB08F182
:100D8000280207F1300C08F10100944407F15802E1
:100D900052FA80F008F102080CF8101C5FFA88F88B
:100DA00000F8105C76E7BA693AB1786A7B6004F0C3
:100DB000A0FE7B6800287FF46DAF1BF0010F09D007
:100DC00006F1280207F13000711C161806F8205CA5
:100DD000CEB25FE71BF0040F3FF45CAF08F12802CE
:100DE00007F1300008F1010102EB000808F8105C7F
:100DF0005FFA81F84EE7002063E71BF80A3087F8B6
:100E0000373054F82390D7F88430FBB133F81B8087
:100E10003A6AFB6A012107F137009847002825DB71
:100E20000544B8F1000F06D14846FFF7E9F900F193
:100E300001081FFA88F83A6AFB6A41464846984713
:100E4000002813DB05440BF1010B6CE7D7F8848015
:100E5000DEE700BF68720008288B0008907E00085B
:100E600004000001C477000845464BE6054649E604
:100E7000014B1860704700BFA800002030B587B054
:100E80000025CDE903010446009503A90548059511
:100E900000F06EF8DDE904309842B8BF255407B081
:100EA00030BD00BF415B0008F0B5094E0168024645
:100EB0000A2700200B4601311C78355D6D0701D4EF
:100EC0001360F0BD07FB0043A3F13000F2E700BF61
:100ED000897D00082DE9F84F15469A46D378234AB4
:100EE00012F803B06F2B81460F460BF0030B2BD08B
:100EF00026D8582B0CBF10260A26DDF8288032464B
:100F0000002348463946FFF7E9F9092A08F1FF3876
:100F1000D4B21ED83034B145E4B277F1000788F876
:100F2000004001D3D04511D82B789B0605D5082E5B
:100F300015D1AB7843F00803AB704046BDE8F88F9D
:100F400003F0F703702BD5E70826D6E781460F4656
:100F5000D5E7BBF1010F0CBF37345734DBE7102E58
:100F6000EBD1AB7843F01003E6E700BF897D0008C2
:100F70002DE9F04F97B08A46039016461C4600258F
:100F8000307808B9284656E325280AD0039B5146F5
:100F900098470028C0F24F83731C01350493049EC8
:100FA000EEE71822002110A804F0A4FC7378252B8A
:100FB00000F0A3800023711C98469E469C4618466C
:100FC0000F4611F8012B2B2A00F0C68000F2BD80DD
:100FD000202A00F0C480232A00F0C4802BB19DF8A1
:100FE000483043F040038DF84830B8F1000F05D089
:100FF0009DF8483043F020038DF84830BEF1000FD3
:1010000005D09DF8483043F010038DF84830BCF10E
:10101000000F05D09DF8483043F008038DF84830A4
:1010200028B19DF8483043F004038DF848309DF80E
:10103000483003F04401442903D16FF386138DF83F
:1010400048309DF84830099743F080032A2A8DF8EC
:10105000483040F08C809DF8493043F001038DF812
:1010600049307B1C1A782E2A9DF849200CBF01219B
:10107000002161F341028DF849200CD15A1C0992DC
:101080005A782A2A40F083809DF8492042F00402D1
:101090008DF8492002331A786C2A00F0A48000F2FF
:1010A0008680682A00F08C806A2A00F0A5804C2A8D
:1010B00000F0AA801A4612F8013B0492782B9DF8A2
:1010C00049208DF84B3000F217816D2B00F2A9807A
:1010D000692B00F21181572B00F2BE80412B03D007
:1010E000453B022B00F208819DF84A30042262F34E
:1010F00002038DF84A300123CAE08DF84B30B31C4F
:1011000004939DF84930D90740F1FD8054F8048BD1
:10111000B8F1000F07DA9DF8482042F004028DF87C
:101120004820C8F100085A0740F1F68054F804BB83
:10113000BBF1000F80F2F5809DF849306FF3410359
:101140008DF849304FF0FF3BEBE02D2A0DD0302ACF
:101150007FF444AF012333E74FF0010C30E74FF049
:10116000010E2DE74FF001082AE7012028E709A822
:10117000FFF79AFE099BBB423FF474AF9DF84820ED
:101180001390C00F60F341028DF848206AE709A868
:10119000FFF78AFE9DF848301490C3F3400242EAFC
:1011A000D07262F341038DF84830099B73E7742ACB
:1011B00026D07A2A7FF47EAF9DF8492006210CE0E4
:1011C0005A78682A9DF8492006D1012161F3C602A8
:1011D0008DF8492002336DE7022161F3C6028DF8D4
:1011E0004920013366E75A786C2A9DF8492001D1DD
:1011F0000421EBE70321F0E79DF849200521ECE706
:101200009DF849200721E8E7BDF8482022F4F04284
:1012100022F0020242F4804242F00202ADF848207D
:10122000DFE76E3BD9B201238B4040F282410B4293
:1012300038D113F0240F52D1DF075DD59DF84A3025
:10124000032161F302038DF84A3002F07803A3F121
:101250004000434243411BE0A3F15801C9B20120C1
:1012600000FA01F111F4624F7FF43EAF40F601073E
:1012700039421DD111F4043F3ED09DF84A3060F34D
:10128000020302F07802402A8DF84A3034D000235D
:101290009DF84820C2F340010B4363F341028DF8EF
:1012A00048202EE79DF84A30022161F30203E8E767
:1012B0009DF84A10022002F0780260F30201402AF1
:1012C0008DF84A1002BF9DF8481041F001018DF8D9
:1012D0004810632BDBD1131E18BF0123D8E79DF8FC
:1012E0004A30032161F3020312F0780F8DF84A307F
:1012F00014BF01230023CBE79DF8483043F00103DE
:101300008DF84830C3E79DF94820002AB4BFDDF8C6
:101310004C804FF0FF3806E79F077FF513AFDDF8ED
:1013200050B09DF849100023CDE913339DF84A30A1
:1013300003F00703012BC1F3C30132D1CB1E042BF1
:1013400004D8DFE803F02045452020002368012968
:101350004FEAE372CDE910321BD19DF94030DA1724
:10136000CDE9103204349DF8483013F003074FD014
:10137000049B03983246514604F018FC0028C0F242
:101380005A8105440BE654F8043BDA17CDE91032D4
:10139000E9E70229E6D11AB243F3C033CDE91023BD
:1013A000E0E7022B24D1CB1E042B04D8DFE803F0A6
:1013B000181010181800012954F8043B4FF00002CF
:1013C00014D00229CDE91032CDD19BB21093CAE7D7
:1013D000073424F00704F4E80223CDE91023C2E720
:1013E00054F8043B109300231193BCE7DBB2CDE724
:1013F000042B08D1073424F00704D4E9002308346F
:10140000CDE91023AFE7032BADD154F8043BDDE762
:101410009DF84B0078283FF6C2AD62281ED82528DB
:1014200050D058287FF4BBAD0DF13E030093DDE9A9
:1014300010010AAB12AAFFF74DFDBBF1000F814668
:1014400080F2C280B9F1000F3FF4A9AD0DF13E0664
:10145000A6EB0903002F7BD0013379E06338152810
:101460003FF69DAD01A252F820F000BF3F150008E5
:101470009D1500089F0F00089F0F00089F0F000890
:101480009F0F00089D1500089F0F00089F0F000880
:101490009F0F00089F0F0008EB150008C3150008F8
:1014A000FD1400089F0F00089F0F0008D5140008C6
:1014B0009F0F0008C31500089F0F00089F0F00082A
:1014C000C3150008039B514698470028C0F2B3801B
:1014D000013564E5BBF1000FDDF840900ADB5946A9
:1014E000484604F059FAB9F1000F3FF458AD09EB42
:1014F000000620E04846FEF783FEF8E71098002833
:1015000000F087800DF13E060AAB009612AA00217A
:10151000FFF7E0FCBDF84A3003F0EF0343F4F0437B
:1015200043F01003BBF1000F8146ADF84A304ADAB0
:1015300000283FF434ADA6EB0903002708E0109B18
:101540008DF8283000270DF129060DF12809012317
:101550009DF84A1011F01002069260D00233139ADF
:10156000059213444A0644BF14995B18B8F1000F62
:101570006EDDA8EB03089DF848305807C3F3800BD5
:1015800066D459065AD53FB1039B51463846984711
:10159000002850DB01355F46302350E01E075CBF5A
:1015A000C3F300135F01DDE9102348BF2B27002B95
:1015B000BFF63AAF524263EB4303CDE910232D2728
:1015C00032E7002730E700279DF848100DF13E0371
:1015D000A3EB09036FF386119B458DF848107FF646
:1015E00031AFABEB030313932CE7109B07293FF6B6
:1015F000D6ACDFE801F00C04060C08080C0C1D70DA
:10160000CDE41D80CBE4EA17C3E90052C7E41D60B6
:10161000C5E4314E0746A6F10509052398E70807FA
:1016200048BF01339BE7184607935146039B9847F1
:101630000028079B04DA17B0BDE8F08F2023C346CB
:10164000594600290BF1FF3BEDDC45446D1AD846A5
:1016500037B1039B5146384698470028EBDB0135EC
:101660009DF84A30DA0601D41B0706D5039B514684
:10167000302098470028DEDB0135069B3BB19DF802
:101680004B00039B514698470028D4DB0135059F4A
:101690002F4406E0039B5146302098470028CADBC0
:1016A00001357B1B002BF5DC039833464A46514637
:1016B00004F07CFA0028BEDB0544A844A8EB05032F
:1016C000002B7FF76CAC039B5146202098470028E5
:1016D000B1DB0135F2E700BF497F0008034A5368D8
:1016E00023F0020353600020704700BF002004E095
:1016F000084B1A6842F480721A601A6842F4007249
:101700001A601A6842F480621A60034B034A1A6036
:1017100000207047003C0240B40100200024F40087
:101720002DE9F047DFF85880044607464FF00109DD
:1017300014B93846BDE8F08794FAA4F5B5FA85F5F2
:1017400009FA05F32E0108EB05156FEA030A24EAEE
:1017500003042B7B002BEBD058F806301B694BB9E8
:101760004644042273682846196807EA0A0700F00D
:1017700051FADDE7284698470028D9D1F0E700BFA5
:101780001478000830B51049104889B0002205F0DF
:1017900034FD0F4D0F4900220023CDE9062300241C
:1017A0000E23CDE90334CDE901440B4B00944FF4F3
:1017B0004072284603F06CFB0849284605F010FCEF
:1017C000204609B030BD00BFE1170008D006002058
:1017D00048020020800A0020C11A00084A7F000841
:1017E000014803F0CDBA00BF340200202DE9F047D4
:1017F00080461E480F4604F055FC064678B3002587
:101800002846BDE8F087237B6BB12368DB680BB10A
:101810002046984723681B69CBB96368042219687E
:10182000204600F0F7F9013610344C45EBD3B8F1FF
:10183000000FE5D0002DE2D02846FFF771FF0546E6
:10184000002FF7D00021642003F08EFDF2E7204640
:1018500098470028E1D00AFA06F31D43E3E7044C59
:10186000DFF8109005464FF0010ADEE7C8080020B7
:101870001478000824780008014B53F820007047C2
:101880006078000808B5034608462BB1044A136087
:1018900000F06EFC002008BD6FF01500FBE700BFF4
:1018A000AC00002010B5044C237813B9034803F0B2
:1018B00067FA0123237010BD3C0A00203402002087
:1018C00010B50446084804F0EDFB5CB1BFF35B8F34
:1018D000064B53E8001F013943E80012002AF8D1F3
:1018E000BFF35B8F10BD00BFC0080020C4080020FC
:1018F0000020064BBFF35B8F014653E8000F43E81F
:101900000012002AF9D1BFF35B8F7047C008002096
:1019100070B5FFF7EDFF084C084E0546B44200D302
:1019200070BD63685B792BB123685B6813B129468E
:10193000204698471034F1E714780008247800080E
:1019400010B5044C0449204604F041FA034B1C60D6
:1019500010BD00BFF80100204C780008B808002036
:10196000084A094808B500231370084A1360084A5A
:101970004FF47A711360FFF785FFBDE80840FFF769
:10198000DFBF00BF3D0A0020BF600008C008002084
:10199000C4080020014600220148002304F038BAA0
:1019A000F8010020014804F0CEBA00BFF801002081
:1019B000024B0146186804F01ABB00BFB8080020AB
:1019C000014804F04FBB00BFF801002070B5254B63
:1019D0001878002844D0FFF7E5FF054690B1BFF323
:1019E0005B8F214B53E8001F013943E80012002AA6
:1019F000F8D1BFF35B8F1D4C1D4EB44226D3284651
:101A0000FFF7D6FF1B4B1C4C1B68002B12DD05F0AB
:101A1000F2FB0A220023FEF761FCD4E90032C01A6F
:101A200040F2E93361EB0201984271F1000101D308
:101A3000FFF76EFFD4E9003213F57A7342F100022A
:101A4000C4E90032BDE87040FFF7BABF63685B7954
:101A500023B1236829461B68204698471034CCE7F9
:101A600070BD00BF3C0A0020C408002014780008A4
:101A700024780008C0080020C806002070B50D4D6D
:101A8000297861B90120FFF7B1FE0B4C0B4EB4422F
:101A900006D3FFF79BFF0028FBD101232B7070BDFD
:101AA00063685B791BB1236820469B6898471034B4
:101AB000EDE700BF3D0A00201478000824780008F4
:101AC00000212DE9F0470846FFF790FE044648B391
:101AD0004FF4FA784FF0000903F064FC1A4B1860D9
:101AE00030B11A4B1B68092B02DD194803F048F985
:101AF000184FDFF85CA0002544B12046FFF710FE28
:101B0000044618B94FF0FF384FF0FF39FFF75EFF7A
:101B1000064628B9B5B942464B46504603F054F93B
:101B20003546E9E74FF0FF384FF0FF39D4E72B682F
:101B30009B691BB100221146284698471035BD42CB
:101B4000F5D3E8E7044DFAE7BC080020C4080020FC
:101B500034020020247800081478000813B51848CF
:101B600004F0A0FA174B1B7873B1EFF31184102324
:101B700083F31288BFF36F8FFFF728FF84F3118878
:101B8000BFF36F8F02B010BD0F4B1B68002BF9D055
:101B900050B900220023CDE900230C4842F2107214
:101BA000002303F055FEEDE70928EBD1074805F0C7
:101BB00030FB074802B0BDE8104003F0E1B800BFB9
:101BC000C40800203D0A0020BC080020D0060020E8
:101BD0003402002010B5064B1B6804469847214686
:101BE000A060044804F090F9BDE81040FFF7B6BFCC
:101BF000AC000020F8010020044A054B9B1AB1EB11
:101C0000D30F34BF52F8310000207047BC77000872
:101C100014780008084BC31A10B41B114468013330
:101C2000237143689A7143681960436801225A71AD
:101C300010BCFFF737BE00BF147800082DE9F04F45
:101C40008FB004AFC1F34A28B8600D4691467B605F
:101C50000C0DB8F1000F63D0002607F114034FF00C
:101C6000040B4FF00A0AC7F80C80C7E907667E62CA
:101C70000193CDF808B0CDF800A007F11C03F96876
:101C800032464846FEF714FFB0F5006F03461CD3FA
:101C90006C468AB0D9F8041004AB2648C3E90501A4
:101CA00040F2FF71D9611A464FF400711984224B3A
:101CB00042F8103F214833464FF41251FFF7BEFF60
:101CC000A5462C37BD46BDE8F08FC0F30A0804F1E5
:101CD0001700184420F0070080083B60FFF75AFE09
:101CE00068F35325044690B13B68154AC7E90836A6
:101CF00000F1100107F11403F961CDE900A3CDF85B
:101D000008B0F96807F11C034846FEF7D1FE68F3F6
:101D100053257B68B9682A46204604F001FAD0E7CB
:101D200004F1170020F007008008FFF733FE044697
:101D3000EDE700BF5F7F000804000001CC770008DA
:101D4000F56000082DE9F04F87B0DDE91279DDE993
:101D5000105A0446039193469846BFB1CDF80090BF
:101D60003B46524610210020CDF81490FEF7CEFCE1
:101D7000B0F5006F06460AD3184A194840F2FF73BF
:101D8000022107B0BDE8F04F04F023BA3E4605F14A
:101D90001700304420F0070004F007048008FFF724
:101DA000F9FD0BF0070BE40044EA8B1444EA4624E7
:101DB00044EA0554054640B13FB1CDF800903B469A
:101DC000524631461030FEF7A1FC039943462246A5
:101DD000284607B0BDE8F04F04F0A2B99E7F000886
:101DE000CC770008406820B1034BC01A40F3CF0005
:101DF00070474FF0FF307047BC7700080EB403B552
:101E000003AB014653F8042B0448019304F005FA90
:101E100002B05DF804EB03B0704700BF43620008F6
:101E2000CA0605D48B064CBF02490349FFF7E6BF3B
:101E3000704700BFD77F0008D67F00082DE9F04F1C
:101E400089B09A46149B06939DF84CB0159B059358
:101E5000169B179E049304460D469046BBF1000F57
:101E600000F09D8006F48073079304F041F906F0BA
:101E70000209024600283ED092492046FFF7BEFFE5
:101E80000746B9F1000F08D016F0440F35D18E493E
:101E90002A462046FFF7B2FF074406F0010353B17C
:101EA0008A4B8B4953F82B208A4B2046002A08BFC7
:101EB0001A46FFF7A3FF06F48073002B49D006F003
:101EC0000803002B63D1B8F1000F66D08249424667
:101ED0002046FFF793FF0546069B3D44002B6DD13E
:101EE000049B002B73D1F30700F1E58031462046B7
:101EF000FFF796FFD9E00746C3E7784B186800283C
:101F0000CAD0774B4FF47A791B68B5FBF3F54FF4E1
:101F10006161B5FBF0F300FB135509FB05F54FF0CC
:101F20003C0CB3FBF1F201FB1231B5FBF0FEB1FB4F
:101F3000FCF300FB1E550CFB131109FB05F500918A
:101F4000B5FBF0F56749CDE901E52046FFF756FFFF
:101F5000A2E706F00803EBB1634B644953F82B206A
:101F60002046FFF74BFF0546B8F1000F05D05A4950
:101F700042462046FFF742FF0544BAF1000FABD0BE
:101F80005B4952462046FFF739FF0544A4E74FF06E
:101F9000000AE1E706F00805E6E745469CE7BAF1E6
:101FA000010F069B06D1002B65D1049B002B7CD032
:101FB00000250CE0002BF8D04E485DE04E48069B13
:101FC0004E49224603F064FD049B002B69D0DFF8E4
:101FD0003081DFF83091049F3146102F204628BF12
:101FE0001027FFF71DFF4FF0000A554546DC059B03
:101FF00049461A782046FFF701FF4FF0010A1AF010
:10200000070F03D141462046FFF7F8FE57453CD95C
:10201000059B494613F80A202046FFF7EFFE0AF118
:10202000010ABAF1100FEAD1374920464FF0000AF1
:10203000FFF7E4FE5246059B9A5C344B995C11F025
:10204000970F08BF2E2232492046FFF7D7FE0AF12C
:10205000010ABAF1100F1DD01AF0070F03D1414643
:102060002046FFF7CBFE57455246E4D8414620466E
:10207000FFF7C4FEEBE720485D46A0E74146204657
:10208000FFF7BCFE0AF1010AAFE722492046FFF73D
:10209000B5FEC4E7059B3B440593049BDB1B0493FF
:1020A00099D1BBF1000F7FF41EAF204609B0BDE807
:1020B000F04F04F0B9B8074A05492046FFF79EFEE5
:1020C00014E700BFDE7F0008E27F00087078000898
:1020D00007800008D97F00080A800008D008002087
:1020E000CC080020EB7F0008847800080E800008F0
:1020F0001480000879620008436200081B6200082F
:10210000218000081980000823800008897D0008CC
:10211000258000081F80000873B542F20F738B42C0
:1021200028BF0B4605680F4A04460521684603F0A0
:1021300026FD63680C495B6806460B22284604F0BE
:102140005EF863683246694628465B6804F057F8D3
:10215000636806495B681B22284604F050F802B009
:1021600070BD00BF35810008448000082880000849
:10217000074A00210123904206D8064A01B90123EB
:102180001360054B1860704740085B000121F2E7BF
:1021900040420F00CC080020D0080020F8B5074FBF
:1021A0000D4604464618B44201D12846F8BD14F83D
:1021B000011BBB6801485B689847F4E7147400088A
:1021C000014B036000207047CC7800082DE9F047F0
:1021D000064600AF0C46002936D0E9468AB0D1E960
:1021E0000012A3686D462148A8464FF0050AC5E9CC
:1021F0000501C5E9072348F810AF1D4842460023F2
:102200004FF42151FFF71AFDCD46D4E9031263695B
:10221000AD461848C5F810A0C5E90501C5E9072372
:102220001348002342464FF42151FFF707FDCD46E6
:10223000E369114A0E48012103F0CBFFA3690F4A5D
:102240000B48012103F0C5FF012E07D1EFF30583F1
:102250000B4A0748103B314603F0BBFF214630468E
:1022600002F0F0FBBD46BDE8F08700BF8A800008A1
:10227000EC770008B9800008E8800008F7800008C3
:102280002581000808B5034B1B689847BDE8084046
:1022900000F006B8B800002030BFFFF7FDBF00BF58
:1022A000074A936893F90E10002907DB526993429D
:1022B0001FBF044A536843F080535360704700BF08
:1022C0000C0A002000ED00E070B5294C06460D46D2
:1022D0002848294904F03FF8A36AD9043CD5254889
:1022E000264904F038F81720A36A1A0504D52148B6
:1022F000234904F030F818201D4CA36A9B0512D521
:102300001C48204904F027F8A36BA26A100409D5E1
:102310001D4A1848012103F05CFF1EB1A36A23F493
:102320000043A3621920124CA36A590504D5114831
:10233000164904F010F81A20A36ADA050ED50D48E4
:10234000134904F008F81B20094A936A43F47F43B9
:10235000936200232B7070BD1620C5E7A36A9B040F
:10236000F2D504480B4903F0F6FF1C20ECE700BF50
:1023700000ED00E0EC770008388100084E8100088D
:102380005F810008728100088B810008A08100082D
:10239000BB810008D381000810B5204C204921489A
:1023A00003F0D9FFA36A990136D51E481E4903F0F0
:1023B000D2FF1E20A36ADA0104D51A481B4903F094
:1023C000CAFF1F20154CA36A1B0304D515481849E2
:1023D00003F0C1FF2120A36A590304D51148154910
:1023E00003F0B9FF22200D4CA36A9A0304D50D48CF
:1023F000114903F0B0FF2320A36ADB0304D5094889
:102400000E4903F0A8FF2420044A936A6FEA0343AD
:102410006FEA1343936210BD1D20CBE700ED00E08F
:1024200002820008EC7700081A8200082D8200085A
:1024300047820008658200088A820008A48200089A
:102440002DE9F843364D80468946364836491746C9
:1024500003F081FFAB6ADE0627D53449314803F02B
:102460007AFF1124AB6A1D0704D531492D4803F0CA
:1024700072FF12242A4DAB6A980718D52D492948B6
:1024800003F069FF6E6BAB6A190646D52A4A2548E8
:102490003346012103F09DFEB9F1000F03D0AB6A72
:1024A00023F08003AB62132403E01024DAE76FF01B
:1024B00015061B4DAB6ADA0704D52049194803F00D
:1024C0004AFF1424AB6A9B0604D51D49154803F046
:1024D00042FF1524124B9A6AD50602D49A6A9007D5
:1024E0000AD55B68190507D54146304600F01AFA4F
:1024F00010B180F309880224094B9A6A920642BF00
:102500005A6A22F400525A629A6A42F0FF029A62B0
:1025100000233B702046BDE8F8836FF01506C2E744
:1025200000ED00E0EC770008CF820008E5820008AB
:102530005F81000818830008308300084683000884
:10254000D38100082DE9F041664B8AB0D3F80480AE
:1025500000AF0446C8F30805002686F31188BFF3D0
:102560006F8F02F07F43B3F17F4F07D102F00C036E
:10257000082B12D15C495D4803F0EDFE002634467D
:102580000023FB71EB1E092B00F28A80DFE803F0C9
:102590000A80837D88888888888610074CBF0C460F
:1025A0000126EDE7524951484E4D03F0D4FE002379
:1025B000FB71EB6A9A0705D54E494C4803F0CBFEF8
:1025C000002333E0EB6A002B01DA4B49F5E7EB6AB5
:1025D0005B00F5D54949454803F0BDFE6B69A2692A
:1025E00043F480736B61BFF34F8FBFF36F8F6B69E1
:1025F00032F8022C23F480736B61BFF34F8FBFF36B
:102600006F8F4DF602739A4209D0AB6ADBB27BB38F
:10261000FA1D01212046FFF713FF034606E0236859
:10262000374A3248012103F0D4FD2368FA79DAB938
:1026300007F1080504F1200C206861682A4603C2EE
:10264000083464451546F7D17A6A002E44D0C2F3A7
:10265000080121B96FEA52226FEA42227A6207F139
:1026600008011846FFF7B2FD2837BD46BDE8F081E6
:10267000AB6A13F47F4F04D0F91D0120FFF724FE4D
:10268000CBE7AB6AB3F5803F9AD3FFF785FEC4E78B
:10269000FA1D0021BEE7F91D0020EFE719498CE77C
:1026A000194A1A4B18F4F87FE8468AB018BF134647
:1026B0006A461749C2E905134FF400731384103DAD
:1026C000144BD56142F8103F084800234FF41151D4
:1026D000FFF7B4FAC54673E722F4FF7222F0010255
:1026E000BCE700BF00ED00E093830008EC77000832
:1026F000BE830008D5830008F68300080484000820
:10270000238400083F8400087A830008658300085A
:102710006384000804000001024A536943F0100377
:102720005361704700ED00E0EFF30880EFF309819B
:1027300001B57246FFF706FF01BD00BF102080F310
:10274000118808484FF40461401880F30988EFF3BA
:1027500014800221084380F31488BFF36F8F00F0C8
:10276000A1F80000C00D0020084B9B6883420BD1EC
:10277000EFF3058343B1064B5A6842F080525A602A
:102780005A6A22F400425A6204F0FABC0C0A002091
:1027900000ED00E0094A93686FF00A019967084963
:1027A00058674B6843F080534B60002383F31188D4
:1027B000BFF36F8F9368986F704700BF0C0A0020BB
:1027C00000ED00E010B50446EFF31183102383F30E
:1027D0001288BFF36F8F094B58699860084B4FF010
:1027E00000625A600022436F426783F31188BFF38F
:1027F0006F8F00F0FBF8204610BD00BF0C0A0020D0
:1028000000ED00E00B498A684FF030001044EFF310
:10281000098C80E8F01F74467046FFF7D3FFA64688
:1028200004498A6802F1300090E8F01F8CF30988AF
:10283000704700000C0A00201EF0040F0CBFEFF3DD
:102840000880EFF30980816911F8021C0229FFD08A
:1028500001B503F07CFD01BD40B2002807DB044A4E
:102860004109012300F01F00834042F821307047E6
:1028700000E100E040B20028A8BF00F1604001F193
:102880000101B8BF064B4FEA0111ACBF00F5614032
:1028900000F00F00C9B2B4BF195480F8001370479C
:1028A00014ED00E00F4A08B50F4B22F07F029A604A
:1028B000BFF34F8FBFF36F8FD3F8882022F47002DD
:1028C000C3F88820EFF3148323F0040383F3148800
:1028D000BFF36F8F02F0A2F902F0F0FD00F05CF898
:1028E00002F0E0F90000000800ED00E042F8203CB2
:1028F000009B42F81C3C0A49019B42F8183C029B91
:1029000042F8143C21F001014FF0807342F8043C7E
:1029100042F8081C0023203A02654367704700BF55
:10292000995B0008094A0346906870B113F1160FCD
:10293000406E05D0A0F140029A4205D8834203D2EE
:10294000814228BF00207047002070470C0A0020F9
:1029500008B50B4B0E461546986000F047F82C461C
:1029600086F309884FF00000064B984720464FF049
:1029700000014FF000024FF00003034C204700BF5E
:102980000C0A002067630008995B0008014B1022C5
:102990001A61704700ED00E0044800231021C218BE
:1029A0000133612B82F80013F9D1704700E100E098
:1029B00008B5EFF30583064A103B02EBC30152F85A
:1029C000330049688847BDE80840FFF769BC00BF8D
:1029D000B4740008024B034A0348012100F08AB88E
:1029E0000000022000000020CC780008426E054B59
:1029F000403A1A60044A4021C3E9011218460121F5
:102A000000F082B8F808002000000B1508B5034656
:102A10001048D0F89020C2F30722013A934207D918
:102A20000D480E4A012103F0D4FB6FF0150008BDDC
:102A3000C0F898300A6822F01F021A4342F01002D0
:102A4000C0F89C208A6842F00102C0F8A020184615
:102A5000EDE700BF00ED00E0E47700087A840008AD
:102A6000F0B50E4685B01F4604460025B5420DDA86
:102A7000606810B397B1431E18420AD0104A11483B
:102A80002B46012103F0A5FB6FF01502104605B09F
:102A9000F0BD1F28F2D921680B42EFD123680193C2
:102AA00003F075FCA36801A90343D0B20393FFF7B9
:102AB000ADFF10F1160FE7D0421C01350C34D5E7FD
:102AC000A0840008E4770008044B0522C3F8942092
:102AD000BFF34F8FBFF36F8F704700BF00ED00E073
:102AE000BFF35F8F024B0022C3F89420704700BFF2
:102AF00000ED00E010B5034C01232278FFF7B0FF92
:102B0000207010BD3F0A002008B50B4A0023127840
:102B1000FFF7A6FF10F1160F07D0084A0021D2F8E0
:102B20009030C3F30723984200DB08BDC2F8980039
:102B3000C2F8A0100130F2E73F0A002000ED00E0EB
:102B40002DE9F04357485849D0F890300D68C3F349
:102B500007239D4285B000F2A180FFF7C1FF4968BD
:102B60000022954201F10C011AD1504C504F2570B2
:102B70006846FFF725FBDFF83C81DFF83C9106460D
:102B80000025AE421FD1237846490020D1F890207D
:102B9000C2F3072293427BDBFFF796FF00204CE055
:102BA000C0F8982051F80C3C23F01F03134343F066
:102BB0001003C0F89C3051F8043C43F00103C0F806
:102BC000A0300132CDE7009800EB05114FEA051C5B
:102BD000CB683B40B3F5000F44D00AD8B3F5001FD3
:102BE0002ED0B3F5800F34D0B3F5801F10D001354F
:102BF000C7E7B3F1807F3ED0B3F1007FF7D150F843
:102C00000C3088684A6803F0C2FB40F4802009E079
:102C100050F80C3088684A6803F0B9FB40F08850DF
:102C200040F43020039001A92078CDE90123FFF77B
:102C3000EDFE002828DA6FF0150005B0BDE8F0833E
:102C400050F80C3088684A6803F0A1FB40EA08009D
:102C5000E8E750F80C3088684A6803F098FB40EACF
:102C60000900DFE750F80C3088684A6803F08FFBF2
:102C700040F08270D6E750F80C3088684A6803F05C
:102C800086FB40F08870CDE7237801332370AEE7F0
:102C9000C1F89830C1F8A000013377E74FF0FF305A
:102CA000CBE700BF00ED00E0D87800083F0A002025
:102CB0000000F0FF0000081100000207014B18603F
:102CC000704700BFBC0000202DE9F0410F4E104FAF
:102CD000054600244FF001082B7853FA84F01F2892
:102CE0000DDC726908FA00F333EA020207D173615E
:102CF00057F830301BB107EBC002516898476A782B
:102D00000134E3B29A42E7D2BDE8F081003C0140D1
:102D100004090020044B184400230133994200F8B1
:102D2000012BFADC704700BFC001002010B4064B35
:102D3000064902460C6818560123934023430B6052
:102D400010BCFFF789BD00BFC0010020003C01405E
:102D50001F2806DC034901220B68824023EA020394
:102D60000B607047003C014003292AD8DFE801F0DE
:102D7000020E141F134B01229968824021EA0201BE
:102D80009960D96821EA0202DA6070470D4B01228E
:102D9000996882401143F3E70A4B0122D9688240C7
:102DA0001143D960996821EA02029A6070470123B1
:102DB00003FA00F0034B9A6802439A60DA68104302
:102DC000D8607047003C014030B50A4B53F83040A2
:102DD0008C4204D103EBC0056D68954205D034B92F
:102DE00043F8301003EBC0035A60002030BD6FF091
:102DF0000F00FBE704090020034B002243F83020BA
:102E000003EBC0035A60704704090020F8B50C7941
:102E10000A4614F0200106D03649374803F020FB5B
:102E20006FF01500F8BD1378082B01D03349F4E793
:102E30005378042B01D03249EFE7456804F01F03B3
:102E400054882868ACB143F6FF7294421BD02D4FD2
:102E500005F1160636F8022F3A4392B2944209D091
:102E600001310829F6D12849234803F0F9FA274906
:102E7000D3E7214695F928203AB1013AD2B2012A86
:102E800035D92349F0E70721F4E703EB4302092B87
:102E900093BF43EA02521E3A43EA025242F00072E2
:102EA00002F000744FF0007393FAA3F3B3FA83F3C4
:102EB000DC400C3002F0F8724FF0F87393FAA3F391
:102EC000B3FA83F350F8245022FA03F3072606FAE4
:102ED00003F325EA03054FF0F87393FAA3F3B3FA6B
:102EE00083F3DA4001FA02F32B4340F82430002048
:102EF00098E700BFFE840008BC770008268500081C
:102F00003B85000800C0FFFF55850008AE8500081E
:102F1000788500082DE9F04F036987B040330746F4
:102F20000D4602934FF0FF324FF0FF33029801F04D
:102F30004BFF7B683C691E68AB68C4F89430D5F8D9
:102F40000490C4F8A0904846FDF77CFA002284F86B
:102F5000A40084F8A520B9F1000F04D18E498F4850
:102F600003F07EFA07E010280EDD8D4A8B4810230F
:102F7000012103F02EF96FF01504029801F000FF13
:102F8000204607B0BDE8F08F7B68196893F92AC026
:102F90002833624502DB11D18249E0E753F8040F80
:102FA00095F810E0BEEBD04F33D1C3B2FF2BC0F386
:102FB0000422C0F3423EC0F3024C2CD17B68039341
:102FC00019683B69D3F8A0704FF4407393FAA3FBE0
:102FD000BBFA8BF34FF0000901F12C080593002F89
:102FE00036D14B6843F480734B6094F8A4202B686F
:102FF000520013B19B8903FB0222EB6893426DD20E
:10300000664800920121684A03F0EDF86FF00B0466
:10301000B3E70132BDE7C858D0400EEA000084454E
:10302000CCD08868C0070BD479680868C1580EFAFC
:1030300002FE21EA0E010CFA02F20A43C250BDE779
:10304000886820F0010088608868C007FCD4EBE73E
:10305000039897FAA7F2B2FA82F202EB4203092A26
:1030600090F9290095BF42EA03531E3B43F00073D9
:1030700042EA03530128049329D15FFA89FA4B48A5
:10308000DDF814C050F82A00BBF1000F00F4407EB8
:1030900008BF4FF0200C2EFA0CFE58F82EC06346E5
:1030A00000F01F0C1F2000FA0CF023EA0000049B24
:1030B00003F01F0303FA0CF3184348F82E003C48B2
:1030C000CB6A50F82A0023F470030343CB62012338
:1030D00003FA02F227EA0207994480E76B7C33B1D6
:1030E00034492E4803F0BCF96FF0850445E7AB7C0A
:1030F0000BB13149F5E7B368DB075EBFB36843F056
:103100000103B3606FF020033360B36843F480635E
:10311000B360736843F0200373602F460FCF04F150
:1031200064060FC63B683360002626662B6873B3BF
:103130000FCB04F1780585E80F006566A4F8886078
:1031400028B3BFF35B8F54E8003F44E80062002AD5
:10315000F9D1BFF35B8FA06F633046F100016422A9
:103160000023FDF7BBF80022CDE90001002304F1A4
:10317000080002F06DFB4FF0FF324FF0FF3304F117
:10318000500001F021FE00B12066246EF5E62046D5
:1031900003F06AF9EFE700BFC4850008BC770008B8
:1031A000D98500080286000815860008A079000865
:1031B000607900083A8600085586000838B52C4B1F
:1031C0001A68920745D52B4CDA6CD4F89430991CC8
:1031D000C4F894101A8094F8A53094F8A420013310
:1031E000DBB29A4284F8A530254632D1002384F818
:1031F000A530636E9BB3E36FB4F888203BB11E48E3
:1032000004F16401984701280BD0022822D0B4F8B9
:103210008830B4F884209A421CD90133A4F888304D
:1032200003E0D4F89830C4F89430A36F23B9BDE814
:103230003840104803F018B9BFF35B8F55E8003FE2
:103240005A1E45E800210029F8D1BFF35B8F012BFE
:10325000EDDC38BDA36F13B1084803F0DAFF4FF679
:10326000FF73A4F8A6300648BDE8384001F088BDD9
:1032700000200140000000203C74000808000020ED
:1032800050000020F7B5044605694668214F3846CE
:1032900003F059FE40B92049204803F0E1F86FF0EF
:1032A0001204204603B0F0BD4FF6FF73A5F8A63018
:1032B000C5F890406468BB68A1681B6838469847A9
:1032C00030B9174A2169536823F440330B435360E4
:1032D000706901AA002103F096FA041E07DB019B26
:1032E00000221979186800F0DFF9041E06DA0D4A89
:1032F0000A482346012102F06CFFD2E7736803B14C
:103300009847AB6C1BB905F1400001F039FD002472
:10331000C7E700BF387300086F860008BC77000855
:10332000002301408E86000810B51D4B18680B68FD
:10333000442B14461DD82F2B05D85A1E042A0DD90C
:103340006FF0850014E0A3F1300101228A40154995
:103350000A420BD1402BF3D1400807E0023B032B7C
:1033600004D8DFE803F002190911002020600020D2
:1033700010BDA82BFAD0E3E700F0A4F84FF4C07317
:10338000C00858438008F1E700F09CF84FF4C07380
:10339000C0085843C008E9E74FF4FA40E6E700BF29
:1033A000B40100201101100070B5424D424C00F0F4
:1033B000A7F8284603F0EEF801F080F8A3683F4A2A
:1033C000C3F30313D35C20FA03F613781D41AE4216
:1033D00002D2284601F048FA236843F48023236090
:1033E000236843F480332360334B1A689203FCD57F
:1033F0005A6F42F001025A675A6F9407FCD59A68D7
:1034000002F00C02082A17D11A68900707D41A682C
:1034100042F001021A60284A13689907FCD5264B2E
:103420009A6822F003029A609A6812F00C0FFBD19E
:103430009A6822F0F0029A601F4C236823F0807390
:103440002360636823F4403343F48033636063682C
:1034500023F0706343F00063636000F037F8236883
:1034600043F08073236023689B01FCD5A36823F09D
:10347000F003A360A36823F0030343F00203A360F7
:103480000D4CA36803F00C03082BFAD1AE4202D313
:10349000284601F0E9F90A4B064A1A60A36823F4AA
:1034A000E05343F48053A360A36823F46043A36014
:1034B000002070BD00D8B80500380240188A000806
:1034C000B40100200048704700127A00094B0A49F5
:1034D0005A681140094A0A435A605A6822F4403235
:1034E00042F480325A605A6822F0E04242F480325C
:1034F0005A607047003802400080BFFF08604000FB
:10350000064B1A6C42F080521A641B6C82B003F0B6
:1035100080530193019B02B0704700BF0038024006
:1035200008B5074803F00FFD38B10648FFF7C6FBA2
:103530000448FDF79DFC002008BD6FF01200FBE77A
:1035400014740008493500080A2838B5074D0446A8
:1035500004D1AB680D215B6828469847AB680348E7
:103560005B68E1B29847204638BD00BF147400087C
:1035700038B5036904465860084D284603F0E3FC5B
:1035800040B16168AB680C311B682846984700EA77
:10359000E07038BD6FF01200FBE700BF3873000821
:1035A000F7B50C461146B1F5001F476802691D4684
:1035B00024D104F00302043292000F23934043EA23
:1035C0009403DAB23449023251F82220190C02EA8B
:1035D000134391FAA1F2B2FA82F2D340BA689A4246
:1035E00009D12046FFF7B4FB2046FFF705FC002178
:1035F0002046FFF7B9FB002003B0F0BDB1F5800F06
:1036000041D026492046FFF7DFFB00283ED1B5F127
:10361000806F34D0B5F1C06F33D0B5F1007F38D1B1
:1036200002261F4ABD6892E803006B4683E8030048
:103630001C488268194612689047C0B904F0030319
:1036400004339B000F229A4042EA9402D3B29B00BB
:1036500003F1804303F59C33110C986820EA124073
:1036600091FAA1F2B2FA82F2954005439D6020469C
:103670003146FFF779FB2046FFF758FBBBE70126F1
:10368000CFE70326CDE76FF08500B5E76FF00F00B9
:10369000B2E76FF01500AFE700380140A9670008F6
:1036A00024780008387300082DE9F0471E4F0446BF
:1036B00000EBC1060025B44201D1002014E02068CF
:1036C000C30600F01F0911D4656845F02005C0F35A
:1036D000481AC0F344200F2823D857F82080B8F1A7
:1036E000000F0DD16FF01200BDE8F087B9F1100F97
:1036F00004D0B9F1110FEAD16568E8E73025E6E7B3
:10370000404603F020FC0028ECD04B462A460AF045
:103710000F01404603F05FF8002804F10804CADAFC
:10372000E2E76FF01500DFE7C07A000840291AD001
:1037300011D8042919D0102919D0012908BF002354
:1037400018BF06230C49026AC85C02238340134059
:1037500023FA00F07047B1F5807F0AD0B1F5806F91
:1037600008BF0523ECE70323ECE70123EAE7022384
:10377000E8E70423E6E700BF348800082DE9F047B6
:1037800001F1FF3C88B0BCF1030FBDF84070446804
:10379000154698460AD97B4A0B467B48012102F020
:1037A00018FD6FF0150008B0BDE8F0872368B3F18D
:1037B000804F06D0754A934203D0B5F5803F00F2A2
:1037C000DD80734A042952F82C6007F4807A0BD10B
:1037D000BAF1000F11D13046D146ADB91A6A22EACA
:1037E00000021A620020DEE76A4A52F82C90BAF111
:1037F000000F05D0B9F1000F04D1674A0B46CCE7A2
:103800003046EAE74846E8E7A26852BB013D1A6A3B
:1038100007F0010730EA02024FEA470739D1402892
:1038200000F0A4802DD8042800F0A280102800F019
:10383000A180012808BF002218BF06225748196A34
:10384000805C0222824021EA0202874017431F6205
:10385000534B206853F82C30414698472368DD626B
:10386000C0E7102A02D108F1FF38CFE722F040016B
:10387000202902D0402A40F081804FEA58086D0884
:10388000C5E7B0F5807F77D0B0F5806F08BF05221F
:10389000D2E7684603F03EFB602300930123BAF1B0
:1038A000000F1ED00293059723681B6A36EA0303B4
:1038B0000CBF01230023019320683146FFF736FF38
:1038C0000490CDF80C8020686A46314600F0F4FE82
:1038D000D0B12D48334A012102F072FC6FF0040090
:1038E00061E701930497B9F1000FEAD023681B6ADE
:1038F00039EA03030CBF01230023029320684946E1
:10390000FFF714FF0590DCE72268136843F080039B
:103910001360402E226821D018D8042E20D0102EFB
:1039200020D0012E18BF06201F4B195C1F4B1832E8
:10393000185C565808238340334353502368DD6294
:103940002268536943F0010353614BE7B6F5807F6A
:103950000AD0B6F5806F08BF0520E3E70320E3E750
:103960000120E1E70220DFE70420DDE7032265E72D
:10397000012263E7022261E704225FE76FF085001E
:1039800011E700BF40870008F4770008000C0040F2
:10399000C47B0008B87B00085587000834880008FD
:1039A000A87B00087C870008428800083B88000844
:1039B0002DE9F04387B0066945683D4F384603F06E
:1039C000C2FA50B93B4A3C48012102F0F9FB6FF0C2
:1039D0001204204607B0BDE8F083D7F8089005F13F
:1039E0000C08D9F80030414638469847041E06DADC
:1039F000324A23463048012102F0EBFBE9E7D9F8CF
:103A00000C302BB36A46414638469847041E21DBEA
:103A10002B4B01A8D3F88C3003F062FA029B336081
:103A2000D6E901018368DB6803B19847686901AA98
:103A3000002102F0E8FE041E07DB019B0022197939
:103A40001868FFF731FE041E07DA1E4A2346D1E745
:103A50006FF057041C4A2346CCE701A803F051FA43
:103A60006B68ADF80430AB6802930023CDE90333F3
:103A700001A9286800F0CAFD38B1144A0E48012196
:103A800002F09EFB6FF00404A3E72B68104A9342F8
:103A900003D002F58062934203D15A6C42F4004293
:103AA0005A642A68136843F001031360002490E706
:103AB000387300086F860008F4770008A6870008AE
:103AC00000380240E8870008C6870008068800081A
:103AD00000000140024A0348012102F071BB00BF0F
:103AE0005A8800080C780008F8B503690C465E682F
:103AF00023794168012B34D09A1E55425541AD02BD
:103B00006279022A9CBF354F37F812C0A27988BF6C
:103B10004FF4005C042A27D0003B18BF01231B038D
:103B2000E279012A0A680CBF4FF440770027A642C9
:103B3000D1681CD121F4B05129430B43D3601369E0
:103B400023F4405343EA0C03136143681A68536932
:103B500023F440733B4353613168BDE8F84002F001
:103B60005BBF4FF4C065CBE74FF48053D8E701F457
:103B7000C0618D421FBFD16821F4C0612943D1606B
:103B8000426811680A6902F4405294451FBF0A69ED
:103B900022F4405242EA0C020A6142681168CA6883
:103BA00002F4805293421FBFCA6822F4805213432A
:103BB000CB6043681A68536903F440739F421FBF88
:103BC000536923F440733B4353612168336899423E
:103BD00003D002F021FF23683360F8BD8A7E00081D
:103BE000F7B50469466805462E48206003F0ABF936
:103BF00048B92D4A2D48012102F0E2FA6FF0120473
:103C0000204603B0F0BD2068F16883681B689847C0
:103C10000446E0B9306A01AA002102F0F4FD041E56
:103C2000EEDB019B002219791868FFF73DFD041EA9
:103C3000E6DB6E682B6934685F68E36823F4005341
:103C4000E360706803F07FF948B9194AD2E7194A6E
:103C50001648012102F0B4FA002CD1DBDAE7D6E9EC
:103C600001018368DB6803B1984704F10C0353E852
:103C7000003F43F00C0304F10C0141E80032002A3C
:103C8000F3D139462846FFF72FFF337D1BB1636917
:103C900043F008036361E36843F40053E3600024E6
:103CA000AEE700BF387300086F8600080C78000884
:103CB000A8880008888800082DE9F04143681C683E
:103CC0000369D3F804800B790D46012B4979AE794D
:103CD00040D1022959D9042E54D04FF480574FF4C3
:103CE000C06203238B424DD1002F00F08680002A52
:103CF00014BF03220422B24244D1EB79C3B1012B99
:103D000040D1404B9C4213D0A3F54C439C420FD072
:103D100003F580639C420BD003F580639C4207D07F
:103D200003F580639C4203D003F544439C4229D1B0
:103D3000E36823F40053E3602946FFF7D5FEE36808
:103D400043F40053E36095E8030088E80300002093
:103D5000BDE8F081022B08D1022921D9042E11D00F
:103D60004FF480624FF48057BBE702290A461FD9FF
:103D7000042E04D133B94FF480571A46B1E763BB20
:103D80000329B8D06FF08500E2E71F4A042E32F80D
:103D900011C0F7D04FF4C062033B012B10D8F1E7FC
:103DA000194A042E32F811C0ECD04FF48062F3E7C8
:103DB000154A042E32F811C016D1002BE2D11A4652
:103DC0004FF48057BCF5805F13D0BCF5405F12D034
:103DD000BCF1000F85D1012384E7033B012BD1D92E
:103DE0000022BFE70022D7E7002BFBD11A461F466F
:103DF000E8E7002376E7022374E7002A14BF0222D3
:103E0000032278E7001001408A7E0008B0B582B036
:103E10000446806810F4B87000AF1FD06D468AB0B9
:103E20006A46104B5361104BC2E906304FF40073E1
:103E300013840E4B42F8103F00230D484FF41151EC
:103E4000FDF7FCFEA3685B06AD4605D5E3687B6025
:103E50007B68A3687B607B686FF004000837BD4611
:103E6000B0BD00BFEE880008D7890008040000013B
:103E7000FC7700082DE9F04383B00669D0F8048090
:103E800000AF0546424C204603F05DF858B9414A60
:103E90004148012102F094F96FF0120420460C37DA
:103EA000BD46BDE8F083A368D8F810101B68204613
:103EB0009847041E05DA394A3748012102F080F993
:103EC000ECE7D8F804003A1D002102F09CFC041E27
:103ED00007DB7B68002219791868FFF7E5FB041EF1
:103EE00006DA2F4A2C482346012102F072F9D5E761
:103EF000D8F8083028469847B5684FF00108D6E949
:103F0000023203EBC2039D4204D3304602F0A9FE05
:103F10000024C3E7286803F016F80346B0B92A68FE
:103F2000297910686C468AB06A461E4DD1614FF4FB
:103F3000007111841C49C2E9055042F8101F16484F
:103F40004FF41151FDF77AFEA546A5E728682979B7
:103F5000EB88D0F810C0D0F80890DCF80040DA0701
:103F600054BF43F4B01383F4D01323F4801208FA3F
:103F700001FEDB074CBF44EA0E0424EA0E04CCF831
:103F80000040D9F800309847041E87DB0835B6E7B3
:103F9000387300086F860008FC770008F98800086D
:103FA0001489000832890008040000012DE9F04F4F
:103FB0008DB0984600AF43680669D3F800907A60E8
:103FC00082460D461AB9B8F1000F00F04E81AB8859
:103FD0009A0436D44FF0FF324FF0FF3306F1100051
:103FE00000F0F2FE7560DFF888C2DAF810B0DAF897
:103FF00004E0BCE80F0007F110040FC49CE80F00B8
:1040000084E80F00DBF80020AB88DEF80040954222
:10401000C3F3451100F0B180082919D0102917D039
:104020006FF0850433689B8813F4005304D17360E8
:1040300006F1100000F0A4FE20463437BD46BDE86E
:10404000F08FB369002BC5D173689D42C2D1CAE716
:1040500013F4004F6368874814BF43F0100323F044
:10406000100363608368DEF81010DB683BB9824A96
:104070008248012102F0A4F86FF00404D2E707F1AE
:104080000C0298470028F2DBF9682868012321FA1E
:1040900003F2824219D90133092BF8D16C468AB058
:1040A0006A46774BC2E905304B08D361090A0523FC
:1040B000116242F8103F714800234FF42151FDF77F
:1040C000BDFDA5466FF01504ACE7226807F130018D
:1040D00022F04002226001EB8303226853F8243C63
:1040E00022F0380213432360AB889B0703D4236874
:1040F00023F0020302E0236843F002032360AB884D
:1041000013F0040F236814BF43F0010323F00103ED
:104110002360236823F444432360AB8813F0100F1B
:10412000236814BF43F0800323F0800323602368D7
:1041300023F400532360AB68002B78D0236843F44A
:1041400000732360636823F004036360AB8813F09B
:10415000010F236814BF23F4827343F48273236036
:10416000AB88C3F34513082B23680CBF23F400630B
:1041700043F400632360CBF80050AB887968C3F345
:104180004513082B0CBF012302233046424602F0A0
:1041900085FCD9F8003043F04003C9F80030DAF864
:1041A0001040206848B183683BB10121083002F01B
:1041B00044FD2368186902F0B7FED9F8043043F0D3
:1041C0002003C9F80430B8F1000F05D0D9F8043045
:1041D00043F04003C9F80430D9F8043043F08003B9
:1041E000C9F804300022B06B134683422DD100235E
:1041F000346C1946A1422FD19342304638BF134642
:104200004FF4FA525A4350F8203B1B68B2FBF3F2CA
:104210000A23C832A2FB032300F0D6FD18B3194AC3
:104220001648012101F0CCFF6FF07304FAE6AB8869
:1042300013F0010F236823F4007382D143F4802329
:104240002360636843F004037FE7716B01EBC301F4
:10425000013349680A44C8E7F06B00EBC100013143
:1042600040680344C6E7346BDCE64446E4E600BF3E
:104270002C7800083873000856890008FC7700087D
:1042800082890008B189000810B54FF0E0230F497A
:104290009C691A6908689B690D4902F4803234B937
:1042A00093B903464AB90A681044C01A10BD002BDE
:1042B00008BF03460AB9A342F5D90A6802440A6056
:1042C0004FF0E0221269EEE70446F3E7080A002007
:1042D000040A00200A4B102283F82320094B4FF4D4
:1042E00016521A60084B002018604FF0E02342F28B
:1042F0007F525A6198611A6942F007021A61704749
:1043000000ED00E0080A0020040A002010B5FFF7C5
:10431000BBFF104B1049D3E900420868001942F175
:104320000002C3E900020D4A00230B60D2E90041FC
:104330004FF41653001BB0FBF3F043431B1941F13C
:104340000001C2E9003101F093F9BDE81040FDF72A
:10435000A7BF00BF10070020040A002008070020A4
:104360002DE9F041DFF8DC8099B1421C0BD14FF010
:10437000E022136923F0010313614FF07F43C8F873
:104380000030BDE8F081D8F80060012807DC002784
:104390000BE0431CD8F80060F7D140F2D26040F245
:1043A000D3639842A8BF1846471EEFF31185102328
:1043B00083F31288BFF36F8FFFF766FF224C4FF035
:1043C000E0239969D4E90023801843F10003C4E98C
:1043D00000031E4B00221A601D4B1A68831A2ED44C
:1043E0004FF4165C0CFB073303F515533F33B3FB57
:1043F000FCF7131A0CFB0733B3F5806F154A38BF6F
:104400004FF48063934228BF13464FF0E022C8F870
:104410000030013B90695361002393618142A1EB1D
:104420000003D4E9001238BF9B195B1842F1000267
:10443000C4E9003285F31188BFF36F8FA1E74FF411
:104440008063E2E7080A002010070020040A002029
:104450000807002000C3FF0038B5EFF311851023D3
:1044600083F31288BFF36F8F084B1C68084B1B68DF
:10447000E41AFFF709FF85F31188BFF36F8F4FF43C
:1044800016532044B0FBF3F038BD00BF10070020E6
:104490000807002038B5EFF31185102383F3128845
:1044A000BFF36F8F044B1C68FFF7EEFE85F3118896
:1044B000BFF36F8F204438BD1007002008B5204996
:1044C0008B6803F00C03082B07D00C2B20D01D4861
:1044D0001D4A042B18BF104608BD4A684B6849683E
:1044E00013F4800314BF17481748C1F3881118BF8D
:1044F000002302F03F02A1FB0001FBF7EFFE104B8F
:104500005B68C3F3014301335B00B0FBF3F0E3E707
:104510004A684B68496813F4800314BF09480A4885
:10452000C1F3881118BF002302F03F02A1FB000174
:10453000FBF7D4FE024B5B68C3F30273E5E700BFF1
:104540000038024000127A000024F400034B044AB1
:104550009B68C3F30313D35CD84070470038024014
:10456000188A0008034B044A9B68C3F38223D35C78
:10457000D840704700380240108A0008034B044AB4
:104580009B68C3F34233D35CD84070470038024085
:10459000108A00080E4A0F49536813F4800F0E4B1F
:1045A00008BF0B46082850685168526800F03F0069
:1045B000B3FBF0F0C1F3881303FB00F003BFC2F3B9
:1045C000014301335B00C2F30273B0FBF3F07047A9
:1045D000003802400024F40000127A00084B98686A
:1045E00000F00C00082808D00C2806D0054A064B1D
:1045F000042818BF134618467047FFF7CBBF00BF0B
:10460000003802400024F40000127A00284A0368AF
:10461000904229D0B0F1804F26D0A2F57C42904242
:1046200022D002F5806290421ED002F58062904254
:104630001AD002F57842904216D002F5705290429C
:1046400017D1CA6823F44073134303608B68C362B5
:104650000B888362164B984203D003F5806398421F
:104660001FD10B6903631CE04A6823F070031343F6
:10467000E7E7104A9042E4D002F580629042E0D031
:10468000A2F598329042DCD002F580629042D8D0F8
:1046900002F580629042D4D003608B68C3620B88BD
:1046A0008362436943F0010343610020704700BF08
:1046B0000000014000440140B1F5807F30B500F0BA
:1046C0009B8005D801292DD010295FD0012030BD55
:1046D000B1F5805FFAD1036A23F480530362036A61
:1046E0004468C169156821F4E64141EA052115696C
:1046F00023F4005343EA0533556823F4805343EA17
:104700000533584DA84203D005F58065A84204D171
:10471000956924F4804444EA85144460C161D268F8
:10472000026430E0036A23F001030362036A416814
:104730008469156824F073042C43156923F002037F
:104740002B43556823F001032B43464DA84203D069
:1047500005F58065A84212D1556923F0080343EAA4
:104760008503956823F0040343EA8503956921F4E2
:1047700080712943D56921F4007141EA4501416006
:104780008461D268426303620020A0E7036A23F0D9
:1047900010030362036A41688469156824F4E644DF
:1047A00044EA0524156923F0200343EA05135568FC
:1047B00023F0100343EA05132A4DA84203D005F560
:1047C0008065A84213D1556923F0800343EA85131D
:1047D000956823F0400343EA8513956921F48061CD
:1047E00041EA8501D56921F4006141EAC5014160D2
:1047F0008461D2688263C6E7036A23F4807303622C
:10480000036A4168C469156824F073042C43156970
:1048100023F4007343EA0523556823F4807343EAC5
:104820000523104DA84203D005F58065A84213D199
:10483000556923F4006343EA8523956823F4806374
:1048400043EA8523956921F4805141EA0511D56930
:1048500021F4005141EA45114160C461D268C2634C
:1048600091E700BF00000140002800F0CC80674BBA
:104870001A6802F44042B2F5404F51D102F10F6282
:1048800002F58C52904211D91A6802F44042B2F5F6
:10489000004F51D105235D4A126802F44042B2F53F
:1048A000804F74D1012B38BF012370E0584A9042E9
:1048B00008D91A6802F44042B2F5004F40F09580E2
:1048C0000423E8E75349884219D8534A90421ED836
:1048D000524A904252D91B6803F44043B3F5004F4B
:1048E0004FF001033AD0494A126802F44042B2F54F
:1048F000804F4CD18842D5D8474A90423CE01A6854
:1049000002F44042B2F5004F53D00323EBE71A689C
:104910001B6803F44043B3F5804F4FF00203C0E738
:104920001A6802F44042B2F5004F4DD102F10F6215
:1049300002F5A342904207D91B6803F44043B3F544
:10494000804F4FF00503ACE7314A90424DD8314AD1
:1049500090422ED8304A9042DAD800232F4A904213
:1049600013D92A4B1B6803F44043B3F5804F46D15B
:10497000294B98424FF0010333D993E71A6802F4A8
:104980004042B2F5004F1CD10023204A126824494E
:104990000A6822F00F021A430A600A6802F00F0246
:1049A00093421CBF0A6802F00F02981A18BF012038
:1049B00070471B6803F44043B3F5804F4FF0030387
:1049C0006FE71B680023E2E71B6803F44043B3F57D
:1049D000804FF7D10F4B98420FD80F4B984210D809
:1049E00000230E4A9042D2D95CE71B6803F440438F
:1049F000B3F5804F4FF0040353E7032352E701233D
:104A0000C5E70223C3E70120704700BF00700040E4
:104A1000000E2707804A5D050087930380C3C90104
:104A2000003C024010B50446FDF728F80348044A4C
:104A3000012101F0C5FB204602F090FAEC77000856
:104A4000288A00082DE9F843044600AF0D46EFF32D
:104A50001188102383F31288BFF36F8F0428294A2B
:104A600098BF294B9668117C94BF53F82030274B90
:104A7000E9468AB06A462648C2E9073140F2013366
:104A80009384244BC2E9050442F8103F22480023D6
:104A90004FF43151FDF7D2F8CD4645B1EB69C3F380
:104AA000080323B11D4A1C48012101F089FB2EB1E6
:104AB000304602F098FA08B1037803B91848E9467D
:104AC0008AB06A46174BD061C2E9053640F201331D
:104AD0001384154B42F8103F00230F484FF4115137
:104AE000FDF7ACF82946CD462046FFF79BFF88F33B
:104AF0001188BFF36F8F3046FDF736FEBD46BDE827
:104B0000F88300BF0C0A00205C7D0008378A00088B
:104B10004D8A000805000001EC770008758A00083E
:104B2000458A0008968A00080400000138B5094B40
:104B300053F82040013053F82050A54200D838BD2A
:104B4000636823B1204602F011FA0834F5E72368C0
:104B50009847FAE7707D000870B52B4B2B4C2C4D15
:104B6000012286B003201A70FFF7E0FF00F0AAFED2
:104B700002F018FA0420FFF7D9FF2646AE4204F1EE
:104B8000300410D300F032FB204C224EAC4226D32E
:104B900000F040FB02F059FB1F4A137B23F0010396
:104BA000137306B070BD54F80C3C059354F8103CD8
:104BB000049354F8143C039354F8183C029354F8AB
:104BC0001C3C019354F8203C009354E90A2354E917
:104BD0000C0100F01FF954F8303C5E65CDE7D4E9D4
:104BE0000A23B3F1FF3F08BFB2F1FF3F05D052EAFD
:104BF0000301206803D102F0F8F93034C6E73146EA
:104C0000183000F0BBFCF8E7400A0020BC77000831
:104C1000BC770008177100089807002008B5034802
:104C2000034A0021121A02F0B9F908BD4802002017
:104C3000440A002070B5002386B00122CDE9042388
:104C4000134E144D01930F22CDE902321249142361
:104C500003FB005506EBC01604464FF4C07000FB82
:104C600004110E4B00954FF4A072304600F0D2F8BC
:104C7000737B0B4AEE6023F0040373734FF40463F9
:104C800004FB033313442C746B6006B070BD00BF8B
:104C9000180700200C0A002000160020A76F00084B
:104CA000C00D0020BFB50020FFF740FF2C4B83F361
:104CB00008882C4D2C4E6B692C4F43F400736B61AC
:104CC0000024F02385F82230EC772C766C76AC76D5
:104CD00085F820406B6A43F4E0236B62FDF71CFD0E
:104CE000FDF754FE4FF0FF33AB62EB62FDF728FF98
:104CF000FDF770FEFCF734FE1D4BB36040F201126D
:104D00009A81C3E919441C6702F01CF90120FFF7DE
:104D10000DFF0220174DFFF709FF00F09BFA164B1D
:104D200075610593012315490094CDE903434FF4C0
:104D300080623B46CDE90144284600F06BF86A7B6F
:104D4000064622F0040228466A7302F08AF92046D9
:104D5000FFF770FF3A4631462846FDF7F9FD00BFE0
:104D60000016002000ED00E00C0A0020594B00085E
:104D70001808002098070020F88A000880170020F3
:104D800038B50446EFF31185102383F31288BFF37F
:104D90006F8F02F0DAF948B10022826702F061F900
:104DA00029460848BDE8384000F0DCB9D4E90232B1
:104DB0009A4218BF0133A36085F31188BFF36F8F48
:104DC00038BD00BF410A002013B5EFF31181102454
:104DD00084F31288BFF36F8F846844B1013C846010
:104DE00081F31188BFF36F8F002002B010BD52EA2B
:104DF000030406D181F31188BFF36F8F6FF00F00AA
:104E0000F3E7CDE900230246014800F07FF9ECE723
:104E1000410A0020F0B5073285B022F007020446AF
:104E20007F320E9D0D9E2573583022F03F02C4E95B
:104E30001600042500203F2AA673C4E90600A060DE
:104E40006573E07301F14007A2F1400605D880F3D5
:104E50001188BFF36F8F284602DFC4E919768D18D9
:104E600000260C9AE66602920B9A01920A9A009228
:104E700020462A46FDF73AFD044B66659B6803B160
:104E80001B6F2367284605B0F0BD00BF0C0A002049
:104E9000F0B587B000250595109D04950F9D0395ED
:104EA0000E9D0295DDE912760D9D01950C9D0095F4
:104EB0000446FFF7AFFFB6F1FF3F08BFB7F1FF3F72
:104EC00005D056EA070305D1204600F05DF92046DB
:104ED00007B0F0BD03493A46334604F1180000F02C
:104EE0004DFBF4E71771000838B50D4D2B4653F80C
:104EF000184F9C4200D004B9EC68AB6838B95A7BB3
:104F0000D20604D1A26912B9DA897F2A05D89C4257
:104F100002D0204600F07AFA23466B6138BD00BF0C
:104F20000C0A002008B590F90D20437B002A0146A9
:104F300004DA03F07F03437302F059F8044B9868D6
:104F4000431A58425841BDE80840FFF7CDBF00BFA3
:104F50000C0A002070B490F90D30427B002B29DB45
:104F6000D30627D183692BBB134962F07F024273BA
:104F70000A4652F8184F944218BF2346CC6923B909
:104F8000C0E900242060C8610CE090F90E5093F94C
:104F90000E60B5420AD0AE4208DD5A68C0E9003260
:104FA0001060586070BC0020FFF79EBF9C42E7D0A5
:104FB0001B68E4E770BC70470C0A00202DE9F04143
:104FC000002A427B0E460CBF1021082111420446E4
:104FD0000FD141EA0203D20918D1437308291BD02B
:104FE0000120FFF781FFBFF35F8F637B23F0600336
:104FF0006373274B9B68A34243D1EFF30583002BD8
:105000003FD13046BDE8F041FDF7C4BB03F07F035C
:10501000437301F0ECFFE1E7A36813B1204601F010
:10502000EEFF04F1180002F0CDF8A56D04F1580769
:10503000AF4211D04FF0000875B1284601F0DFFFF4
:1050400005F1180002F0BEF8C5F878802846FFF791
:1050500081FFA56DAF42EFD10D4DAB689C42BFD132
:10506000EFF30583002BBBD00120FFF73DFF094B79
:10507000AB6040F201129A810022C3E919221A673B
:10508000B1E786F31188BFF36F8FBDE8F08100BFF1
:105090000C0A00201808002070B590F90D20437B01
:1050A000002A014604DA03F07F03437301F09FFFF7
:1050B0004B7B154A63F07F0310464B7350F8183F43
:1050C000D469834208BF002323B9C1E900042160E9
:1050D000D1610CE091F90E5093F90E60B5420ED0FB
:1050E000AE420CDD5868C1E900300160596090683B
:1050F000431A5842BDE870405841FFF7F5BE9C4244
:10510000E3D01B68E0E700BF0C0A0020F8B5124BA3
:105110000C461146114A98681060DDE90676EFF3F7
:105120001182102282F31288BFF36F8F9D68284688
:1051300001F06FFFB6F1FF3F08BFB7F1FF3F06D0A8
:1051400007493A46334605F1180000F017FA2046A1
:10515000BDE8F840FDF71EBB0C0A00202C0A002019
:105160001771000849B9EFF3058030B9054B5A694A
:105170009B689A4201D0FDF70DBB81F31188BFF304
:105180006F8F70470C0A002010B5EFF311841022C6
:1051900082F31288BFF36F8F427B510704D484F3EC
:1051A0001188BFF36F8F10BD22F004024273FFF726
:1051B000D1FE21460248BDE81040FFF7D3BF00BF33
:1051C000410A0020034648B9EFF3058232B9064A86
:1051D00051699268914201D0FDF7DCBA83F31188DE
:1051E000BFF36F8F704700BF0C0A0020EFF31181EF
:1051F000102383F31288BFF36F8F054B9A68D37B1C
:10520000013BD37381F31188BFF36F8F704700BFE9
:105210000C0A002038B5EFF31185102484F31288AE
:10522000BFF36F8F0A4B9A68D37B0133D37300208F
:10523000FFF75AFE85F31188BFF36F8FEFF31180EC
:1052400084F31288BFF36F8FBDE83840FFF7BABF11
:105250000C0A0020024B03F11802C3E90622704732
:105260000C0A0020F8B5EFF31185102383F31288A0
:10527000BFF36F8F19498868437B03F07F03437343
:1052800001F0B5FE8B685A7B084662F07F025A73C4
:1052900050F8182FCC69824208BF002222B9C3E916
:1052A00000042360CB610CE093F90E6092F90E705C
:1052B000BE420ED0B7420CDD5168C3E900210B603D
:1052C00053600120FFF710FE2846BDE8F840FDF7C7
:1052D00061BAA242E3D01268E0E700BF0C0A0020E6
:1052E00050EA01032DE9F04105460E4603D1FFF7D0
:1052F000B9FF00202BE0831C71F1FF3329DB01F0A3
:1053000076FF2C18EFF31188102383F31288BFF374
:105310006F8F124F124BB8681860FFF703FEB86822
:1053200010492A463346183000F028F9BA68537BF2
:1053300043F0100353734046FDF72CFA01F057FF7A
:10534000201A63EB0303012873F10003D1DBBDE8EE
:10535000F0816FF00104241AD4E700BF0C0A00208A
:105360002C0A002017710008B1F1FF3F08BFB0F10F
:10537000FF3F08B506D10A4B986801F081FE4FF057
:10538000FF3008BDFFF7ACFFC11709304FF00A022C
:105390004FF0000341F10001FAF7A0FFF1E700BF71
:1053A0000C0A0020014B9868704700BF0C0A0020CF
:1053B000044BC01A044BC0105843044B01221A542A
:1053C000704700BF98080020ABAAAAAA410A002093
:1053D000C3897F2B12D80A4B1B6863B1094B90F924
:1053E0000E201B689A4209DB437BDB0606D1064B85
:1053F000C31A18BF012303F0010070470023FAE726
:10540000340A0020300A00201807002070B50E4B27
:105410000E4C1E7C06EB460304EBC30405462046F7
:1054200001F0D0FE0A4B002228469A55FFF7D0FF24
:1054300048B1084B08491A68013A2046D317BDE81D
:10544000704000F09BB870BD0C0A00209808002046
:10545000410A0020340A0020B153000838B5EFF3A8
:105460001185102383F31288BFF36F8F104B114AFD
:105470009C681068A04206D1FFF7C8FF85F3118829
:10548000BFF36F8F38BD00211B7C11600A4AD35CCB
:10549000002BF3D02046FFF79BFF0028EED0637B64
:1054A000DB0602D12046FFF7F7FD2046E4E700BF08
:1054B0000C0A00202C0A0020410A002008B50648EA
:1054C000064A0749121A01F06BFDBDE80840054A7B
:1054D0000549064801F064BD000000204402002098
:1054E000288B000800000000288B00080000002026
:1054F000034B1B680BB9FEF7AFBF0020704700BF1E
:10550000380A002030B570B10B4B5B6898420AD066
:10551000036843B1D3E90421D0E90445121941EBF2
:105520000501C3E90421D0E9003213605A60002369
:10553000C0E9003330BD00BFB801002010B50E4BEC
:105540001C689C4204D1FFF7D3FF6FF0004010BDF0
:10555000FFF7CEFF002CF8D0D4E904321B1A62EB1F
:10556000E072B3F1004F72F10001EEDA002AACBF35
:1055700018460020EBE700BFB8010020B3F1FF3F61
:1055800008BFB2F1FF3FF8B504461D4616465ED08F
:105590008160EFF31187102383F31288BFF36F8FBD
:1055A000013275F1FF3324DA2E49D1E900206FF082
:1055B00001039B1A4FF0FF3262EB00009E1B60EB71
:1055C0000500012E70F1000301DA01260020C4E974
:1055D0000460254ED6F800C07568B44508BF4FF08A
:1055E000000CBCF1000F0DD1C4E900652C607460A3
:1055F0001CE0FFF77DFF013645F10005361845EB4D
:10560000E070E4E7DCE90420D4E90431934271EB73
:10561000000E1DDAD21ADCF8043060EB0100CCE990
:105620000420C4E900C31C60CCF804403368B342D2
:1056300009D09C4207D10D4B1C6824B9FFF77EFFAF
:105640002146FEF78DFE87F31188BFF36F8FF8BDFB
:105650009B1A61EB0001AC45C4E90431C4D0DCF80D
:1056600000C0BEE7B0080020B8010020380A0020C2
:105670002DE9F84FEFF3118C102383F31288BFF359
:105680006F8FDFF8B0A0DFF8B0902C4FC9F80000A2
:10569000DAF800000024504508BF00200025D7E9B3
:1056A0000021D9F80030E04678B3D0E9046C4FEA25
:1056B000E37EB3427EEB0C0B05DAF61A6CEB0E04BC
:1056C000C0E9046421E0B21841EBE671C0E9044589
:1056D000C7E90021FFF716FF88F31188BFF36F8F2A
:1056E00083689847EFF31188102383F31288BFF380
:1056F0006F8FD9F80030DAF800009B1B5045C44684
:10570000C9F80030CBD1D7E900219A1841EBE373F7
:105710000024C7E90023C9F80040FFF70FFF214626
:10572000FEF71EFE88F31188BFF36F8FBDE8F84FB8
:10573000FFF794BEB8010020380A0020B00800200E
:1057400010B5EFF31184102383F31288BFF36F8F2A
:10575000FFF7CEFE054A0346D2E90001181841EBD7
:10576000E37184F31188BFF36F8F10BDB008002080
:10577000F8B50446EFF31187102383F31288BFF3C3
:105780006F8F026822B187F31188BFF36F8FF8BD66
:10579000D0E90A36581C46F10001022871F10001D7
:1057A00027D3012B76F10001BCBF012316465D1EF5
:1057B00046F1FF3601F01FFD013041F100014019B3
:1057C00046EB0101012871F1000139DB01F013FD05
:1057D000013041F100016FF00102401946EB010375
:1057E000121A4FF0FF3161EB030318492046FFF70F
:1057F000C5FE236B01332363236A6BB187F31188E2
:10580000BFF36F8F236A20469847EFF31187102369
:1058100083F31288BFF36F8F54F8185FA542B2D09C
:10582000002DB0D0284601F044FC0023AB6787F37D
:105830001188BFF36F8F2846BDE8F84001F011BC16
:105840006FF001024FF0FF33CFE700BF7157000840
:105850002DE9F04105461C4690461F46EFF31186A0
:10586000102383F31288BFF36F8FB4F1FF3F08BF9B
:10587000B2F1FF3F05D186F31188BFF36F8FBDE80A
:10588000F081531C74F1FF3309DB012A74F100032A
:10589000BCBF0122002412F1FF3844F1FF37284633
:1058A00001F090FCDDE906010023C5E90A012B6344
:1058B000034942463B462846FFF760FEDBE700BF50
:1058C00071570008014800F04DB900BF008B000877
:1058D00038B5064C064DAC4201D3002038BDD4E9A2
:1058E0000112204601F0B4FC1434F4E73402002025
:1058F00034020020830730B547D0541E002A3ED022
:10590000CAB2034601E0013C39D303F8012B9D07DD
:10591000F9D1032C2CD9CDB205EB05250F2C05EBC5
:10592000054535D9A4F1100222F00F0C03F1100E39
:10593000E6444FEA121C1A46156055609560D56022
:1059400010327245F8D10CF1010214F00C0F03EB88
:10595000021204F00F0C13D0ACF1040323F0030384
:105960000433134442F8045B9A42FBD10CF0030465
:105970002CB1C9B21C4403F8011B9C42FBD130BDC1
:1059800064461346002CF4D1F9E703461446C0E7F9
:105990001A46A446E0E700BF71B1034600EB010CD4
:1059A00001E0634506D01A46013311780029F8D189
:1059B000101A7047181A704708467047704700EB76
:1059C000C100408840087047F8B50346FFF7F7FF6D
:1059D000B0FA80F0C0F11F0003EB800CCA00DCF8C5
:1059E0001060171D0C4606328DB256B9012101FA1E
:1059F00000F0D9680143D960CCF81040DD539D52C6
:105A0000F8BDF1000431585AD85303EBC0009E5240
:105A1000C5805D52F4E7043A2DE9F041CC1D1144F4
:105A200024F0070421F007010E1BF708B7FA87F2EC
:105A3000C2F12405AD004FF000080735C2F1200285
:105A4000ED0804604146A760C4F80C80920004F1A0
:105A50001000FFF74FFF6B0043F00103638004EB7E
:105A6000C5027B1B5900A4F800805180A21924F8BC
:105A70003550A2F80280A35304EBC70329465A8885
:105A800042F001025A802046BDE8F041FFF79CBF7A
:105A90002DE9F04706460D46174698462BB398F871
:105AA000004093F80190DB78A40004EB430498F8DD
:105AB00002301C4444444FF0000ACA4509D3D8F8C8
:105AC000042008F1080339463046AC46BDE8F047EB
